{
  "_format": "hh-sol-artifact-1",
  "contractName": "DPoS",
  "sourceName": "contracts/DPoS.sol",
  "abi": [
    {
      "anonymous": false,
      "inputs": [
        {
          "indexed": true,
          "internalType": "address",
          "name": "delegate",
          "type": "address"
        },
        {
          "indexed": false,
          "internalType": "string",
          "name": "name",
          "type": "string"
        }
      ],
      "name": "DelegateRegistered",
      "type": "event"
    },
    {
      "anonymous": false,
      "inputs": [
        {
          "indexed": true,
          "internalType": "address",
          "name": "user",
          "type": "address"
        },
        {
          "indexed": false,
          "internalType": "uint256",
          "name": "amount",
          "type": "uint256"
        }
      ],
      "name": "Staked",
      "type": "event"
    },
    {
      "anonymous": false,
      "inputs": [
        {
          "indexed": true,
          "internalType": "address",
          "name": "user",
          "type": "address"
        },
        {
          "indexed": false,
          "internalType": "uint256",
          "name": "amount",
          "type": "uint256"
        }
      ],
      "name": "Unstaked",
      "type": "event"
    },
    {
      "anonymous": false,
      "inputs": [
        {
          "indexed": true,
          "internalType": "address",
          "name": "user",
          "type": "address"
        },
        {
          "indexed": true,
          "internalType": "address",
          "name": "delegate",
          "type": "address"
        },
        {
          "indexed": false,
          "internalType": "uint256",
          "name": "weight",
          "type": "uint256"
        }
      ],
      "name": "Voted",
      "type": "event"
    },
    {
      "inputs": [
        {
          "internalType": "uint256",
          "name": "",
          "type": "uint256"
        }
      ],
      "name": "delegateAddresses",
      "outputs": [
        {
          "internalType": "address",
          "name": "",
          "type": "address"
        }
      ],
      "stateMutability": "view",
      "type": "function"
    },
    {
      "inputs": [
        {
          "internalType": "address",
          "name": "",
          "type": "address"
        }
      ],
      "name": "delegates",
      "outputs": [
        {
          "internalType": "address",
          "name": "wallet",
          "type": "address"
        },
        {
          "internalType": "string",
          "name": "name",
          "type": "string"
        },
        {
          "internalType": "uint256",
          "name": "totalVotes",
          "type": "uint256"
        },
        {
          "internalType": "bool",
          "name": "isRegistered",
          "type": "bool"
        }
      ],
      "stateMutability": "view",
      "type": "function"
    },
    {
      "inputs": [],
      "name": "getAllDelegates",
      "outputs": [
        {
          "components": [
            {
              "internalType": "address",
              "name": "wallet",
              "type": "address"
            },
            {
              "internalType": "string",
              "name": "name",
              "type": "string"
            },
            {
              "internalType": "uint256",
              "name": "totalVotes",
              "type": "uint256"
            },
            {
              "internalType": "bool",
              "name": "isRegistered",
              "type": "bool"
            }
          ],
          "internalType": "struct DPoS.Delegate[]",
          "name": "",
          "type": "tuple[]"
        }
      ],
      "stateMutability": "view",
      "type": "function"
    },
    {
      "inputs": [
        {
          "internalType": "string",
          "name": "_name",
          "type": "string"
        }
      ],
      "name": "registerDelegate",
      "outputs": [],
      "stateMutability": "nonpayable",
      "type": "function"
    },
    {
      "inputs": [],
      "name": "stake",
      "outputs": [],
      "stateMutability": "payable",
      "type": "function"
    },
    {
      "inputs": [
        {
          "internalType": "address",
          "name": "",
          "type": "address"
        }
      ],
      "name": "stakes",
      "outputs": [
        {
          "internalType": "uint256",
          "name": "",
          "type": "uint256"
        }
      ],
      "stateMutability": "view",
      "type": "function"
    },
    {
      "inputs": [],
      "name": "unstake",
      "outputs": [],
      "stateMutability": "nonpayable",
      "type": "function"
    },
    {
      "inputs": [
        {
          "internalType": "address",
          "name": "",
          "type": "address"
        }
      ],
      "name": "userVote",
      "outputs": [
        {
          "internalType": "address",
          "name": "",
          "type": "address"
        }
      ],
      "stateMutability": "view",
      "type": "function"
    },
    {
      "inputs": [
        {
          "internalType": "address",
          "name": "_delegateAddress",
          "type": "address"
        }
      ],
      "name": "voteForDelegate",
      "outputs": [],
      "stateMutability": "nonpayable",
      "type": "function"
    }
  ],
  "bytecode": "0x6080604052348015600f57600080fd5b50611c248061001f6000396000f3fe6080604052600436106100865760003560e01c806352599dcf1161005957806352599dcf14610112578063587cde1e1461013b57806364bc82c31461017b5780637a4f3764146101b8578063f5ba1c87146101e357610086565b806316934fc41461008b578063226ee02a146100c85780632def6620146100f15780633a4b66f114610108575b600080fd5b34801561009757600080fd5b506100b260048036038101906100ad91906110f5565b610220565b6040516100bf919061113b565b60405180910390f35b3480156100d457600080fd5b506100ef60048036038101906100ea919061129c565b610238565b005b3480156100fd57600080fd5b50610106610480565b005b610110610754565b005b34801561011e57600080fd5b50610139600480360381019061013491906110f5565b61092f565b005b34801561014757600080fd5b50610162600480360381019061015d91906110f5565b610cb5565b604051610172949392919061138e565b60405180910390f35b34801561018757600080fd5b506101a2600480360381019061019d9190611406565b610d9a565b6040516101af9190611433565b60405180910390f35b3480156101c457600080fd5b506101cd610dd9565b6040516101da91906115ea565b60405180910390f35b3480156101ef57600080fd5b5061020a600480360381019061020591906110f5565b611010565b6040516102179190611433565b60405180910390f35b60006020528060005260406000206000915090505481565b600260003373ffffffffffffffffffffffffffffffffffffffff1673ffffffffffffffffffffffffffffffffffffffff16815260200190815260200160002060030160009054906101000a900460ff16156102c8576040517f08c379a00000000000000000000000000000000000000000000000000000000081526004016102bf90611658565b60405180910390fd5b60405180608001604052803373ffffffffffffffffffffffffffffffffffffffff1681526020018281526020016000815260200160011515815250600260003373ffffffffffffffffffffffffffffffffffffffff1673ffffffffffffffffffffffffffffffffffffffff16815260200190815260200160002060008201518160000160006101000a81548173ffffffffffffffffffffffffffffffffffffffff021916908373ffffffffffffffffffffffffffffffffffffffff160217905550602082015181600101908161039e9190611884565b506040820151816002015560608201518160030160006101000a81548160ff0219169083151502179055509050506003339080600181540180825580915050600190039060005260206000200160009091909190916101000a81548173ffffffffffffffffffffffffffffffffffffffff021916908373ffffffffffffffffffffffffffffffffffffffff1602179055503373ffffffffffffffffffffffffffffffffffffffff167ff3326e06724cb2af7774f08f889b2383e540955bb6ed3b00ccb9dfe14622881d826040516104759190611956565b60405180910390a250565b60008060003373ffffffffffffffffffffffffffffffffffffffff1673ffffffffffffffffffffffffffffffffffffffff16815260200190815260200160002054905060008111610506576040517f08c379a00000000000000000000000000000000000000000000000000000000081526004016104fd906119c4565b60405180910390fd5b6000600160003373ffffffffffffffffffffffffffffffffffffffff1673ffffffffffffffffffffffffffffffffffffffff16815260200190815260200160002060009054906101000a900473ffffffffffffffffffffffffffffffffffffffff169050600073ffffffffffffffffffffffffffffffffffffffff168173ffffffffffffffffffffffffffffffffffffffff16146106775781600260008373ffffffffffffffffffffffffffffffffffffffff1673ffffffffffffffffffffffffffffffffffffffff16815260200190815260200160002060020160008282546105f09190611a13565b925050819055506000600160003373ffffffffffffffffffffffffffffffffffffffff1673ffffffffffffffffffffffffffffffffffffffff16815260200190815260200160002060006101000a81548173ffffffffffffffffffffffffffffffffffffffff021916908373ffffffffffffffffffffffffffffffffffffffff1602179055505b60008060003373ffffffffffffffffffffffffffffffffffffffff1673ffffffffffffffffffffffffffffffffffffffff168152602001908152602001600020819055503373ffffffffffffffffffffffffffffffffffffffff166108fc839081150290604051600060405180830381858888f19350505050158015610701573d6000803e3d6000fd5b503373ffffffffffffffffffffffffffffffffffffffff167f0f5bb82176feb1b5e747e28471aa92156a04d9f3ab9f45f28e2d704232b93f7583604051610748919061113b565b60405180910390a25050565b60003411610797576040517f08c379a000000000000000000000000000000000000000000000000000000000815260040161078e90611a93565b60405180910390fd5b346000803373ffffffffffffffffffffffffffffffffffffffff1673ffffffffffffffffffffffffffffffffffffffff16815260200190815260200160002060008282546107e59190611ab3565b925050819055506000600160003373ffffffffffffffffffffffffffffffffffffffff1673ffffffffffffffffffffffffffffffffffffffff16815260200190815260200160002060009054906101000a900473ffffffffffffffffffffffffffffffffffffffff169050600073ffffffffffffffffffffffffffffffffffffffff168173ffffffffffffffffffffffffffffffffffffffff16146108de5734600260008373ffffffffffffffffffffffffffffffffffffffff1673ffffffffffffffffffffffffffffffffffffffff16815260200190815260200160002060020160008282546108d69190611ab3565b925050819055505b3373ffffffffffffffffffffffffffffffffffffffff167f9e71bc8eea02a63969f509818f2dafb9254532904319f9dbda79b67bd34a5f3d34604051610924919061113b565b60405180910390a250565b60008060003373ffffffffffffffffffffffffffffffffffffffff1673ffffffffffffffffffffffffffffffffffffffff16815260200190815260200160002054116109b0576040517f08c379a00000000000000000000000000000000000000000000000000000000081526004016109a790611b33565b60405180910390fd5b600260008273ffffffffffffffffffffffffffffffffffffffff1673ffffffffffffffffffffffffffffffffffffffff16815260200190815260200160002060030160009054906101000a900460ff16610a3f576040517f08c379a0000000000000000000000000000000000000000000000000000000008152600401610a3690611b9f565b60405180910390fd5b60008060003373ffffffffffffffffffffffffffffffffffffffff1673ffffffffffffffffffffffffffffffffffffffff1681526020019081526020016000205490506000600160003373ffffffffffffffffffffffffffffffffffffffff1673ffffffffffffffffffffffffffffffffffffffff16815260200190815260200160002060009054906101000a900473ffffffffffffffffffffffffffffffffffffffff169050600073ffffffffffffffffffffffffffffffffffffffff168173ffffffffffffffffffffffffffffffffffffffff1614610b745781600260008373ffffffffffffffffffffffffffffffffffffffff1673ffffffffffffffffffffffffffffffffffffffff1681526020019081526020016000206002016000828254610b6c9190611a13565b925050819055505b82600160003373ffffffffffffffffffffffffffffffffffffffff1673ffffffffffffffffffffffffffffffffffffffff16815260200190815260200160002060006101000a81548173ffffffffffffffffffffffffffffffffffffffff021916908373ffffffffffffffffffffffffffffffffffffffff16021790555081600260008573ffffffffffffffffffffffffffffffffffffffff1673ffffffffffffffffffffffffffffffffffffffff1681526020019081526020016000206002016000828254610c449190611ab3565b925050819055508273ffffffffffffffffffffffffffffffffffffffff163373ffffffffffffffffffffffffffffffffffffffff167f174ba19ba3c8bb5c679c87e51db79fff7c3f04bb84c1fd55b7dacb470b674aa684604051610ca8919061113b565b60405180910390a3505050565b60026020528060005260406000206000915090508060000160009054906101000a900473ffffffffffffffffffffffffffffffffffffffff1690806001018054610cfe906116a7565b80601f0160208091040260200160405190810160405280929190818152602001828054610d2a906116a7565b8015610d775780601f10610d4c57610100808354040283529160200191610d77565b820191906000526020600020905b815481529060010190602001808311610d5a57829003601f168201915b5050505050908060020154908060030160009054906101000a900460ff16905084565b60038181548110610daa57600080fd5b906000526020600020016000915054906101000a900473ffffffffffffffffffffffffffffffffffffffff1681565b6060600060038054905067ffffffffffffffff811115610dfc57610dfb611171565b5b604051908082528060200260200182016040528015610e3557816020015b610e22611043565b815260200190600190039081610e1a5790505b50905060005b600380549050811015611008576002600060038381548110610e6057610e5f611bbf565b5b9060005260206000200160009054906101000a900473ffffffffffffffffffffffffffffffffffffffff1673ffffffffffffffffffffffffffffffffffffffff1673ffffffffffffffffffffffffffffffffffffffff1681526020019081526020016000206040518060800160405290816000820160009054906101000a900473ffffffffffffffffffffffffffffffffffffffff1673ffffffffffffffffffffffffffffffffffffffff1673ffffffffffffffffffffffffffffffffffffffff168152602001600182018054610f36906116a7565b80601f0160208091040260200160405190810160405280929190818152602001828054610f62906116a7565b8015610faf5780601f10610f8457610100808354040283529160200191610faf565b820191906000526020600020905b815481529060010190602001808311610f9257829003601f168201915b50505050508152602001600282015481526020016003820160009054906101000a900460ff161515151581525050828281518110610ff057610fef611bbf565b5b60200260200101819052508080600101915050610e3b565b508091505090565b60016020528060005260406000206000915054906101000a900473ffffffffffffffffffffffffffffffffffffffff1681565b6040518060800160405280600073ffffffffffffffffffffffffffffffffffffffff16815260200160608152602001600081526020016000151581525090565b6000604051905090565b600080fd5b600080fd5b600073ffffffffffffffffffffffffffffffffffffffff82169050919050565b60006110c282611097565b9050919050565b6110d2816110b7565b81146110dd57600080fd5b50565b6000813590506110ef816110c9565b92915050565b60006020828403121561110b5761110a61108d565b5b6000611119848285016110e0565b91505092915050565b6000819050919050565b61113581611122565b82525050565b6000602082019050611150600083018461112c565b92915050565b600080fd5b600080fd5b6000601f19601f8301169050919050565b7f4e487b7100000000000000000000000000000000000000000000000000000000600052604160045260246000fd5b6111a982611160565b810181811067ffffffffffffffff821117156111c8576111c7611171565b5b80604052505050565b60006111db611083565b90506111e782826111a0565b919050565b600067ffffffffffffffff82111561120757611206611171565b5b61121082611160565b9050602081019050919050565b82818337600083830152505050565b600061123f61123a846111ec565b6111d1565b90508281526020810184848401111561125b5761125a61115b565b5b61126684828561121d565b509392505050565b600082601f83011261128357611282611156565b5b813561129384826020860161122c565b91505092915050565b6000602082840312156112b2576112b161108d565b5b600082013567ffffffffffffffff8111156112d0576112cf611092565b5b6112dc8482850161126e565b91505092915050565b6112ee816110b7565b82525050565b600081519050919050565b600082825260208201905092915050565b60005b8381101561132e578082015181840152602081019050611313565b60008484015250505050565b6000611345826112f4565b61134f81856112ff565b935061135f818560208601611310565b61136881611160565b840191505092915050565b60008115159050919050565b61138881611373565b82525050565b60006080820190506113a360008301876112e5565b81810360208301526113b5818661133a565b90506113c4604083018561112c565b6113d1606083018461137f565b95945050505050565b6113e381611122565b81146113ee57600080fd5b50565b600081359050611400816113da565b92915050565b60006020828403121561141c5761141b61108d565b5b600061142a848285016113f1565b91505092915050565b600060208201905061144860008301846112e5565b92915050565b600081519050919050565b600082825260208201905092915050565b6000819050602082019050919050565b611483816110b7565b82525050565b600082825260208201905092915050565b60006114a5826112f4565b6114af8185611489565b93506114bf818560208601611310565b6114c881611160565b840191505092915050565b6114dc81611122565b82525050565b6114eb81611373565b82525050565b6000608083016000830151611509600086018261147a565b5060208301518482036020860152611521828261149a565b915050604083015161153660408601826114d3565b50606083015161154960608601826114e2565b508091505092915050565b600061156083836114f1565b905092915050565b6000602082019050919050565b60006115808261144e565b61158a8185611459565b93508360208202850161159c8561146a565b8060005b858110156115d857848403895281516115b98582611554565b94506115c483611568565b925060208a019950506001810190506115a0565b50829750879550505050505092915050565b600060208201905081810360008301526116048184611575565b905092915050565b7f416c726561647920726567697374657265640000000000000000000000000000600082015250565b60006116426012836112ff565b915061164d8261160c565b602082019050919050565b6000602082019050818103600083015261167181611635565b9050919050565b7f4e487b7100000000000000000000000000000000000000000000000000000000600052602260045260246000fd5b600060028204905060018216806116bf57607f821691505b6020821081036116d2576116d1611678565b5b50919050565b60008190508160005260206000209050919050565b60006020601f8301049050919050565b600082821b905092915050565b60006008830261173a7fffffffffffffffffffffffffffffffffffffffffffffffffffffffffffffffff826116fd565b61174486836116fd565b95508019841693508086168417925050509392505050565b6000819050919050565b600061178161177c61177784611122565b61175c565b611122565b9050919050565b6000819050919050565b61179b83611766565b6117af6117a782611788565b84845461170a565b825550505050565b600090565b6117c46117b7565b6117cf818484611792565b505050565b5b818110156117f3576117e86000826117bc565b6001810190506117d5565b5050565b601f82111561183857611809816116d8565b611812846116ed565b81016020851015611821578190505b61183561182d856116ed565b8301826117d4565b50505b505050565b600082821c905092915050565b600061185b6000198460080261183d565b1980831691505092915050565b6000611874838361184a565b9150826002028217905092915050565b61188d826112f4565b67ffffffffffffffff8111156118a6576118a5611171565b5b6118b082546116a7565b6118bb8282856117f7565b600060209050601f8311600181146118ee57600084156118dc578287015190505b6118e68582611868565b86555061194e565b601f1984166118fc866116d8565b60005b82811015611924578489015182556001820191506020850194506020810190506118ff565b86831015611941578489015161193d601f89168261184a565b8355505b6001600288020188555050505b505050505050565b60006020820190508181036000830152611970818461133a565b905092915050565b7f4e6f207374616b6520746f207769746864726177000000000000000000000000600082015250565b60006119ae6014836112ff565b91506119b982611978565b602082019050919050565b600060208201905081810360008301526119dd816119a1565b9050919050565b7f4e487b7100000000000000000000000000000000000000000000000000000000600052601160045260246000fd5b6000611a1e82611122565b9150611a2983611122565b9250828203905081811115611a4157611a406119e4565b5b92915050565b7f416d6f756e74206d7573742062652067726561746572207468616e2030000000600082015250565b6000611a7d601d836112ff565b9150611a8882611a47565b602082019050919050565b60006020820190508181036000830152611aac81611a70565b9050919050565b6000611abe82611122565b9150611ac983611122565b9250828201905080821115611ae157611ae06119e4565b5b92915050565b7f596f75206d757374207374616b652045544820666972737420746f20766f7465600082015250565b6000611b1d6020836112ff565b9150611b2882611ae7565b602082019050919050565b60006020820190508181036000830152611b4c81611b10565b9050919050565b7f44656c6567617465206e6f7420666f756e640000000000000000000000000000600082015250565b6000611b896012836112ff565b9150611b9482611b53565b602082019050919050565b60006020820190508181036000830152611bb881611b7c565b9050919050565b7f4e487b7100000000000000000000000000000000000000000000000000000000600052603260045260246000fdfea264697066735822122015a816bde3234a689d0ca48d311cf3ab872e5129947fba8f3312ad81057780cf64736f6c634300081c0033",
  "linkReferences": {},
  "deployedLinkReferences": {}
}