{
  "_format": "hh-sol-artifact-1",
  "contractName": "VotingSystem",
  "sourceName": "contracts/Voting.sol",
  "abi": [
    {
      "inputs": [],
      "stateMutability": "nonpayable",
      "type": "constructor"
    },
    {
      "anonymous": false,
      "inputs": [
        {
          "indexed": true,
          "internalType": "uint256",
          "name": "electionId",
          "type": "uint256"
        }
      ],
      "name": "ElectionCreated",
      "type": "event"
    },
    {
      "anonymous": false,
      "inputs": [
        {
          "indexed": true,
          "internalType": "uint256",
          "name": "electionId",
          "type": "uint256"
        },
        {
          "indexed": false,
          "internalType": "bool",
          "name": "isActive",
          "type": "bool"
        }
      ],
      "name": "ElectionStatusChanged",
      "type": "event"
    },
    {
      "anonymous": false,
      "inputs": [
        {
          "indexed": true,
          "internalType": "uint256",
          "name": "electionId",
          "type": "uint256"
        },
        {
          "indexed": true,
          "internalType": "uint256",
          "name": "candidateId",
          "type": "uint256"
        },
        {
          "indexed": false,
          "internalType": "address",
          "name": "voter",
          "type": "address"
        }
      ],
      "name": "VoteCast",
      "type": "event"
    },
    {
      "inputs": [
        {
          "internalType": "uint256",
          "name": "_electionId",
          "type": "uint256"
        },
        {
          "internalType": "address",
          "name": "_voter",
          "type": "address"
        }
      ],
      "name": "checkHasVoted",
      "outputs": [
        {
          "internalType": "bool",
          "name": "",
          "type": "bool"
        }
      ],
      "stateMutability": "view",
      "type": "function"
    },
    {
      "inputs": [
        {
          "internalType": "uint256",
          "name": "_electionId",
          "type": "uint256"
        }
      ],
      "name": "createElection",
      "outputs": [],
      "stateMutability": "nonpayable",
      "type": "function"
    },
    {
      "inputs": [
        {
          "internalType": "uint256",
          "name": "",
          "type": "uint256"
        }
      ],
      "name": "elections",
      "outputs": [
        {
          "internalType": "uint256",
          "name": "id",
          "type": "uint256"
        },
        {
          "internalType": "bool",
          "name": "isActive",
          "type": "bool"
        }
      ],
      "stateMutability": "view",
      "type": "function"
    },
    {
      "inputs": [
        {
          "internalType": "uint256",
          "name": "_electionId",
          "type": "uint256"
        },
        {
          "internalType": "uint256",
          "name": "_candidateId",
          "type": "uint256"
        }
      ],
      "name": "getCandidateVotes",
      "outputs": [
        {
          "internalType": "uint256",
          "name": "",
          "type": "uint256"
        }
      ],
      "stateMutability": "view",
      "type": "function"
    },
    {
      "inputs": [
        {
          "internalType": "uint256",
          "name": "",
          "type": "uint256"
        },
        {
          "internalType": "address",
          "name": "",
          "type": "address"
        }
      ],
      "name": "hasVoted",
      "outputs": [
        {
          "internalType": "bool",
          "name": "",
          "type": "bool"
        }
      ],
      "stateMutability": "view",
      "type": "function"
    },
    {
      "inputs": [],
      "name": "owner",
      "outputs": [
        {
          "internalType": "address",
          "name": "",
          "type": "address"
        }
      ],
      "stateMutability": "view",
      "type": "function"
    },
    {
      "inputs": [
        {
          "internalType": "uint256",
          "name": "_electionId",
          "type": "uint256"
        },
        {
          "internalType": "bool",
          "name": "_isActive",
          "type": "bool"
        }
      ],
      "name": "toggleElectionStatus",
      "outputs": [],
      "stateMutability": "nonpayable",
      "type": "function"
    },
    {
      "inputs": [
        {
          "internalType": "uint256",
          "name": "_electionId",
          "type": "uint256"
        },
        {
          "internalType": "uint256",
          "name": "_candidateId",
          "type": "uint256"
        }
      ],
      "name": "vote",
      "outputs": [],
      "stateMutability": "nonpayable",
      "type": "function"
    }
  ],
  "bytecode": "0x6080604052348015600f57600080fd5b50336000806101000a81548173ffffffffffffffffffffffffffffffffffffffff021916908373ffffffffffffffffffffffffffffffffffffffff160217905550610d4c8061005f6000396000f3fe608060405234801561001057600080fd5b50600436106100885760003560e01c80638da5cb5b1161005b5780638da5cb5b1461014e578063b384abef1461016c578063c912869d14610188578063efee0653146101a457610088565b8063112d26a91461008d57806343859632146100bd57806350f311dc146100ed5780635e6fef011461011d575b600080fd5b6100a760048036038101906100a291906107fc565b6101c0565b6040516100b4919061084b565b60405180910390f35b6100d760048036038101906100d291906108c4565b6101f2565b6040516100e4919061091f565b60405180910390f35b610107600480360381019061010291906108c4565b610221565b604051610114919061091f565b60405180910390f35b6101376004803603810190610132919061093a565b610289565b604051610145929190610967565b60405180910390f35b6101566102ba565b604051610163919061099f565b60405180910390f35b610186600480360381019061018191906107fc565b6102de565b005b6101a2600480360381019061019d919061093a565b61051b565b005b6101be60048036038101906101b991906109e6565b610670565b005b600060016000848152602001908152602001600020600201600083815260200190815260200160002054905092915050565b60026020528160005260406000206020528060005260406000206000915091509054906101000a900460ff1681565b60006002600084815260200190815260200160002060008373ffffffffffffffffffffffffffffffffffffffff1673ffffffffffffffffffffffffffffffffffffffff16815260200190815260200160002060009054906101000a900460ff16905092915050565b60016020528060005260406000206000915090508060000154908060010160009054906101000a900460ff16905082565b60008054906101000a900473ffffffffffffffffffffffffffffffffffffffff1681565b6000600160008481526020019081526020016000206000015403610337576040517f08c379a000000000000000000000000000000000000000000000000000000000815260040161032e90610a83565b60405180910390fd5b6001600083815260200190815260200160002060010160009054906101000a900460ff1661039a576040517f08c379a000000000000000000000000000000000000000000000000000000000815260040161039190610aef565b60405180910390fd5b6002600083815260200190815260200160002060003373ffffffffffffffffffffffffffffffffffffffff1673ffffffffffffffffffffffffffffffffffffffff16815260200190815260200160002060009054906101000a900460ff1615610438576040517f08c379a000000000000000000000000000000000000000000000000000000000815260040161042f90610b81565b60405180910390fd5b60016002600084815260200190815260200160002060003373ffffffffffffffffffffffffffffffffffffffff1673ffffffffffffffffffffffffffffffffffffffff16815260200190815260200160002060006101000a81548160ff02191690831515021790555060016000838152602001908152602001600020600201600082815260200190815260200160002060008154809291906104d990610bd0565b919050555080827f7fe1d4e6b34e228b5dc059fcdc037c71b216fb2417f47c171e505144a5e4f5fc3360405161050f919061099f565b60405180910390a35050565b60008054906101000a900473ffffffffffffffffffffffffffffffffffffffff1673ffffffffffffffffffffffffffffffffffffffff163373ffffffffffffffffffffffffffffffffffffffff16146105a9576040517f08c379a00000000000000000000000000000000000000000000000000000000081526004016105a090610c8a565b60405180910390fd5b6000600160008381526020019081526020016000206000015414610602576040517f08c379a00000000000000000000000000000000000000000000000000000000081526004016105f990610cf6565b60405180910390fd5b600060016000838152602001908152602001600020905081816000018190555060008160010160006101000a81548160ff021916908315150217905550817fe5ada6048ea7c2d62f0279b6b2e956a1d24f57eb887465b33a580e916257a6e760405160405180910390a25050565b60008054906101000a900473ffffffffffffffffffffffffffffffffffffffff1673ffffffffffffffffffffffffffffffffffffffff163373ffffffffffffffffffffffffffffffffffffffff16146106fe576040517f08c379a00000000000000000000000000000000000000000000000000000000081526004016106f590610c8a565b60405180910390fd5b6000600160008481526020019081526020016000206000015403610757576040517f08c379a000000000000000000000000000000000000000000000000000000000815260040161074e90610a83565b60405180910390fd5b806001600084815260200190815260200160002060010160006101000a81548160ff021916908315150217905550817f550243ff1a84cc99f7f82bfd2e29380f33523ca72cde0783141c25ed8f4dede3826040516107b5919061091f565b60405180910390a25050565b600080fd5b6000819050919050565b6107d9816107c6565b81146107e457600080fd5b50565b6000813590506107f6816107d0565b92915050565b60008060408385031215610813576108126107c1565b5b6000610821858286016107e7565b9250506020610832858286016107e7565b9150509250929050565b610845816107c6565b82525050565b6000602082019050610860600083018461083c565b92915050565b600073ffffffffffffffffffffffffffffffffffffffff82169050919050565b600061089182610866565b9050919050565b6108a181610886565b81146108ac57600080fd5b50565b6000813590506108be81610898565b92915050565b600080604083850312156108db576108da6107c1565b5b60006108e9858286016107e7565b92505060206108fa858286016108af565b9150509250929050565b60008115159050919050565b61091981610904565b82525050565b60006020820190506109346000830184610910565b92915050565b6000602082840312156109505761094f6107c1565b5b600061095e848285016107e7565b91505092915050565b600060408201905061097c600083018561083c565b6109896020830184610910565b9392505050565b61099981610886565b82525050565b60006020820190506109b46000830184610990565b92915050565b6109c381610904565b81146109ce57600080fd5b50565b6000813590506109e0816109ba565b92915050565b600080604083850312156109fd576109fc6107c1565b5b6000610a0b858286016107e7565b9250506020610a1c858286016109d1565b9150509250929050565b600082825260208201905092915050565b7f456c656374696f6e20646f6573206e6f74206578697374000000000000000000600082015250565b6000610a6d601783610a26565b9150610a7882610a37565b602082019050919050565b60006020820190508181036000830152610a9c81610a60565b9050919050565b7f456c656374696f6e206973206e6f742061637469766500000000000000000000600082015250565b6000610ad9601683610a26565b9150610ae482610aa3565b602082019050919050565b60006020820190508181036000830152610b0881610acc565b9050919050565b7f596f75206861766520616c726561647920766f74656420696e2074686973206560008201527f6c656374696f6e00000000000000000000000000000000000000000000000000602082015250565b6000610b6b602783610a26565b9150610b7682610b0f565b604082019050919050565b60006020820190508181036000830152610b9a81610b5e565b9050919050565b7f4e487b7100000000000000000000000000000000000000000000000000000000600052601160045260246000fd5b6000610bdb826107c6565b91507fffffffffffffffffffffffffffffffffffffffffffffffffffffffffffffffff8203610c0d57610c0c610ba1565b5b600182019050919050565b7f4f6e6c792061646d696e2063616e20706572666f726d2074686973206163746960008201527f6f6e000000000000000000000000000000000000000000000000000000000000602082015250565b6000610c74602283610a26565b9150610c7f82610c18565b604082019050919050565b60006020820190508181036000830152610ca381610c67565b9050919050565b7f456c656374696f6e20616c726561647920657869737473000000000000000000600082015250565b6000610ce0601783610a26565b9150610ceb82610caa565b602082019050919050565b60006020820190508181036000830152610d0f81610cd3565b905091905056fea2646970667358221220c04eee2eb500e4b327dc9d0ea32af046973478d82175e0314c856384af00560464736f6c634300081c0033",
  "linkReferences": {},
  "deployedLinkReferences": {}
}